:100000000C943E000C9450000C9450000C9403048B
:100010000C9450000C9450000C9450000C94500020
:100020000C9450000C9450000C9450000C94500010
:100030000C9450000C9431050C9450000C948805DD
:100040000C9450000C9450000C9450000C945000F0
:100050000C9450000C9450000C9450000C945000E0
:100060000C9450000C9450000C9450000C945000D0
:100070000C9450000C9450000C94500011241FBE9E
:10008000CFEFCDBFDFE3DEBF29E3A0E0B8E301C0DF
:100090001D92A234B207E1F70E94B9080C94291608
:1000A0000C9400009C01611114C080912A398823AE
:1000B00021F0220F331F2C5D35404AE0429FC001E2
:1000C000439F900D112426E0969587952A95E1F798
:1000D0000895613091F7863991057CF72B368FEFC3
:1000E00038075CF330E020E0E8CF9B01932F990FB5
:1000F000990B161617060CF491E037FF03C03195E3
:1001000021953109E3E0A2E0813031F0E5E0A4E09F
:10011000823011F0E1E0A0E09130B9F080E09F3F43
:1001200009F020E0B0E0AA0FBB1FAE55B3450D901B
:10013000BC91A02D8C93F0E0EE0FFF1FEE55F34520
:100140000190F081E02D20830895822FEACF8091E5
:10015000F538882311F02C9A08952C9808959091E1
:10016000BB38890F982F9F719093BB38E82FEF70A1
:10017000F0E0E258F74C90852091BA38211103C085
:1001800084FD909196389093BD380895FC0181913B
:10019000811101C008959091040895FFFCCF8093D0
:1001A0000208F5CF10920608109200041092200465
:1001B000109240041092000A1092400A1092800A95
:1001C00008950E94C6008EEA9CEA0E94C60087EA53
:1001D00091E60197F1F700C00000F8940E94D20068
:1001E0009FE724E88EE1915020408040E1F700C075
:1001F0000000F89488ED91E084BF90934100FCCF1B
:100200001F93CF93DF93182FC4E6D0E082E00E94C3
:10021000AC07812361F083EC99E00197F1F700C00E
:100220000000219799F784EC9CEA0E94E100DF919D
:10023000CF911F910895E3E2F9E38FE1DF011D9271
:100240008A95E9F781E0848386838583858F089585
:10025000CF93DF93CDB7DEB7E597CDBFDEBF8AE2A0
:1002600094E489839A8380917E3890917F38A0911D
:100270008038B09181388B839C83AD83BE8380E1CD
:10028000E6E8F8E3DE01179601900D928A95E1F712
:100290008FE1E3E2F9E3DE01579601900D928A9532
:1002A000E1F745E350E070E060E0CE0101960E9486
:1002B0002613E596CDBFDEBFDF91CF910895609103
:1002C000BD38615040EC8FE00E94FD0610921F394E
:1002D0000895CF93DF93CDB7DEB7FE0135964191F8
:1002E00051919F0160E570E081E298E30E948213E2
:1002F0001092703881E298E30E94C600DF91CF919E
:100300000895EF92FF920F931F93CF93DF93EC0129
:100310008C01060F111D80EFE82E8CEAF82E8991D2
:100320001F928F93FF92EF920E9469010F900F909E
:100330000F900F90C017D10791F78CEB9FEADF91D8
:10034000CF911F910F91FF90EF900C94C6000F93E7
:100350001F93CF93C0E000EF1CEA8C2F0E94AC07E4
:100360001F928F931F930F930E9469010F900F901C
:100370000F900F908C2F8F708F3021F48CEB9FEAB1
:100380000E94C600CF5FC03341F78CEB9FEACF914C
:100390001F910F910C94C600CF93DF93CDB7DEB7BA
:1003A000FE013596419151919F0160E570E081E237
:1003B00098E30E9482131092703881E298E30E94C1
:1003C000C6008CEB9FEA0E94C600DF91CF91089592
:1003D000FB0121E030E0042E01C0220F0A94EAF76D
:1003E0002283A3ECB9E01197F1F700C000009085DB
:1003F0002923B1F01F924F93282F082E000C330BA6
:100400003F938F9386EF9CEA9F938F930E94CC013A
:100410000F900F900F900F900F900F9080E0089525
:1004200081E0089582E29DEA9F938F930E94CC0120
:100430001092BA38E6E8F8E30F900F9080E09CE85D
:1004400081FD9DE091938F5F8031C9F789E39DEA3B
:100450000E94C60060E186E898E30E94810185E57C
:100460009DEA9F938F930E94CC010F900F9064E0C0
:1004700086EB98E30C948101CF93DF9383E69DEAAA
:100480009F938F930E94CC0186E792EB9F938F936B
:100490000E94690164E08EE798E30E948101CEE743
:1004A000D8E380E1E6EAF8E3A6E8B8E301900D922C
:1004B0008A95E1F783E79DEA9F938F930E946901F4
:1004C00060E186E898E30E9481011DAE82E08CAF76
:1004D0000F900F900F900F900F900F90DF91CF9192
:1004E0000C942801CF92DF92EF92FF920F931F930B
:1004F000CF93DF9300D000D0CDB7DEB789E79DEA78
:100500009F938F930E94CC0183E294EF0197F1F7C0
:1005100000C0000060E080E00E94AE059FE9E6E8D0
:10052000F1E09150E040F040E1F700C000008DE8BC
:100530009DEA9F938F930E94CC0144E06EE97CEA90
:1005400086E00E9461069CE6E92E9CEAF92E0F9057
:100550000F900F900F9010E0F70161917F016F3FB6
:1005600019F0812F0E94AE051F5F1233A9F78FE9A2
:100570009DEA9F938F930E94CC0161E08BE00E94E3
:10058000AE0500910804047063E08BE00E94AE05A4
:100590001091080414701F921F931F920F9387EB02
:1005A0009DEA9F938F930E94CC01CDBFDEBF0113C4
:1005B0000AC08AEC9DEA9F938F930E94CC018BEE38
:1005C0009DEA0E94E10061E08BE00E94AE0589EFA8
:1005D0009DEA9F938F930E94CC010E94A70180EA1D
:1005E0000E94DC0689E19EEA9F938F930E94CC01D2
:1005F00061E082E00E94AE0581E00E94000184E398
:100600009EEA9F938F930E94CC0163E184E20E9453
:10061000AE058CE49EEA9F938F930E94CC016BE31E
:1006200086E20E94AE0581E69EEA9F938F930E9428
:10063000CC0160E08FE00E94AE0562E082E00E94A3
:10064000AE0582E00E94000185E20E94AC07CDBFAA
:10065000DEBF83FF08C08EE79EEA9F938F930E94C0
:10066000CC010F900F9087E99EEA9F938F930E9491
:10067000CC0160EA8FE00E94AE0562E082E00E9459
:10068000AE0582E00E94000185E20E94AC07182FAF
:100690001F928F9387EB9EEA9F938F930E94CC01CA
:1006A0000F900F900F900F900F900F9013FF08C0B6
:1006B0008EE79EEA9F938F930E94CC010F900F903C
:1006C00087EC9EEA9F938F930E94CC0168E085E2BD
:1006D0000E94AE0582EE9EEA9F938F930E94CC010A
:1006E00080EA0E94DC0681EF9EEA9F938F930E942E
:1006F000CC010E94A70144E0BE016F5F7F4F86E0FE
:100700000E944F089E012F5F3F4F69010F900F908D
:100710000F900F900F900F9010E000E085E0E82E12
:100720008FEAF82EF60181916F011F928F931F932C
:100730000F93FF92EF920E94CC010F5F1F4F0F901B
:100740000F900F900F900F900F900430110551F7FC
:1007500044E050E06EE97CEACE0101960E94661307
:10076000892B21F08AE19FEA0E94E1008FE00E943C
:10077000AC07803A61F01F928F9383E39FEA9F93C7
:100780008F930E94CC0183E59FEA0E94E10080EEF6
:100790000E94DC0607EF18E36FEF85E00E94AE05CC
:1007A0008FEFF80181938F01F9E30C311F07A1F757
:1007B0002496CDBFDEBFDF91CF911F910F91FF90A7
:1007C000EF90DF90CF9008958DE69FEA9F938F93EF
:1007D0000E94CC01E6E7F8E388E0DF011D928A95EC
:1007E000E9F7E0E4FAE086EC9CE58487958781E010
:1007F000858311821286138683E08083809312049E
:100800000F900F9008951F920F920FB60F92112420
:10081000DF92EF92FF920F931F932F933F934F938B
:100820005F936F937F938F939F93AF93BF93EF9358
:10083000FF93CF93DF93CDB7DEB7A597CDBFDEBFD4
:100840008091080482FD09C010911F39112319F10C
:1008500084E5809302080E945F0184E0809309048C
:10086000A596CDBFDEBFDF91CF91FF91EF91BF91F4
:10087000AF919F918F917F916F915F914F913F9138
:100880002F911F910F91FF90EF90DF900F900FBE6F
:100890000F901F90189580E00E94AC07807609F4B5
:1008A00072C085E68093020881E00091BD388823FC
:1008B00009F488C081E00E94AF0080917638909161
:1008C00077380196809376389093773810924A0A59
:1008D00010924B0A8091460A81608093460A80916B
:1008E0001C39882309F472C080EA0E94DC0626E1E4
:1008F00047EF58E365E080EE0E942406602F8FE00A
:100900000E94AE0580ED0E94DC0681E080931F39D5
:1009100010921C3984E7809302081123E1F0809142
:10092000EB3881110EC08BE1FE013196A6ECB8E3E5
:1009300001900D928A95E1F781E08093EB38009366
:10094000BE381092BF3881E380930208809121392C
:100950008F5F809321390E94A70081E080937538D2
:10096000809120398F5F80932039843608F475CFC9
:100970009091213984E6891B809322391092203985
:10098000109221396ACF0981D090BA382BE1AE019B
:100990004F5F5F4F65E080EF0E94120844E050E037
:1009A0006EE778E3CE0102960E9466137C01D110B7
:1009B00050C00B3B11F0083561F481E011E075CFB8
:1009C00001E022C080E00E94AF0089CF0E945F0159
:1009D000A4CF0C3BF1F544E050E06EE778E3CE01A4
:1009E00002960E946613892BA1F50A85002341F324
:1009F000023079F544E050E062E878E3CE010696F3
:100A00000E946613892B29F585E0FE013196A7EF38
:100A1000B8E301900D928A95E1F780918238909128
:100A20008338A0918438B09185388093FC389093B6
:100A3000FD38A093FE38B093FF3800930039109230
:100A400001398FEF809302398093033981E08093DD
:100A50001C39EF2809F4B1CF80E38093020880E0CD
:100A600024CF1F920F920FB60F9211242F933F9312
:100A70004F935F936F937F938F939F93AF93BF93A6
:100A8000EF93FF938091460A80FF2DC08091460A24
:100A900081608093460A80917838909179380196E8
:100AA00080937838909379388091BF38853020F0E2
:100AB0008091BA38811128C081E00E94AF008091F6
:100AC000BF388F5F8093BF380E945F018EE28093B2
:100AD00002080E94A70081E0809375388091203938
:100AE0008F5F80932039FF91EF91BF91AF919F91DC
:100AF0008F917F916F915F914F913F912F910F90C7
:100B00000FBE0F901F90189580E00E94AF00DCCFC1
:100B10001F921FB61F9211248F939F93AF93BF9381
:100B2000EF93FF93E1E7F8E380819181A281B381A4
:100B30000296A11DB11D80839183A283B383E0E857
:100B4000FAE0858581608587FF91EF91BF91AF9134
:100B50009F918F911F901FBE1F9018952B98069AFA
:100B600087FD0E9A87FF0E980F9A0F98880F87FDC2
:100B70000E9A87FF0E980F9A0F98880F87FD0E9A8E
:100B800087FF0E980F9A0F98880F87FD0E9A87FFA0
:100B90000E980F9A0F98880F87FD0E9A87FF0E9870
:100BA0000F9A0F98880F87FD0E9A87FF0E980F9A5D
:100BB0000F98880F87FD0E9A87FF0E980F9A0F984F
:100BC000880F87FD0E9A87FF0E980F9A0F98880F4F
:100BD000862F87FD0E9A87FF0E980F9A0F98880F21
:100BE00087FD0E9A87FF0E980F9A0F98880F87FD42
:100BF0000E9A87FF0E980F9A0F98880F87FD0E9A0E
:100C000087FF0E980F9A0F98880F87FD0E9A87FF1F
:100C10000E980F9A0F98880F87FD0E9A87FF0E98EF
:100C20000F9A0F98880F87FD0E9A87FF0E980F9ADC
:100C30000F98880F87FD0E9A87FF0E980F9A0F98CE
:100C4000880F06982B9A08952B98069A87FD0E9A7E
:100C500087FF0E980F9A0F98880F87FD0E9A87FFCF
:100C60000E980F9A0F98880F87FD0E9A87FF0E989F
:100C70000F9A0F98880F87FD0E9A87FF0E980F9A8C
:100C80000F98880F87FD0E9A87FF0E980F9A0F987E
:100C9000880F87FD0E9A87FF0E980F9A0F98880F7E
:100CA00087FD0E9A87FF0E980F9A0F98880F87FD81
:100CB0000E9A87FF0E980F9A0F98880F862FBA0109
:100CC000422F2B98069A87FD0E9A87FF0E980F9A4F
:100CD0000F98880F87FD0E9A87FF0E980F9A0F982E
:100CE000880F87FD0E9A87FF0E980F9A0F98880F2E
:100CF00087FD0E9A87FF0E980F9A0F98880F87FD31
:100D00000E9A87FF0E980F9A0F98880F87FD0E9AFC
:100D100087FF0E980F9A0F98880F87FD0E9A87FF0E
:100D20000E980F9A0F98880F87FD0E9A87FF0E98DE
:100D30000F9A0F98880FDB014423D9F18D9187FD1D
:100D40000E9A87FF0E980F9A0F98880F87FD0E9ABC
:100D500087FF0E980F9A0F98880F87FD0E9A87FFCE
:100D60000E980F9A0F98880F87FD0E9A87FF0E989E
:100D70000F9A0F98880F87FD0E9A87FF0E980F9A8B
:100D80000F98880F87FD0E9A87FF0E980F9A0F987D
:100D9000880F87FD0E9A87FF0E980F9A0F98880F7D
:100DA00087FD0E9A87FF0E980F9A0F98880F4A9525
:100DB000C3CF06982B9A08952B98069A87FD0E9A12
:100DC00087FF0E980F9A0F98880F87FD0E9A87FF5E
:100DD0000E980F9A0F98880F87FD0E9A87FF0E982E
:100DE0000F9A0F98880F87FD0E9A87FF0E980F9A1B
:100DF0000F98880F06982B9A08952B98069A87FDCE
:100E00000E9A87FF0E980F9A0F98880F87FD0E9AFB
:100E100087FF0E980F9A0F98880F87FD0E9A87FF0D
:100E20000E980F9A0F98880F87FD0E9A87FF0E98DD
:100E30000F9A0F98880F87FD0E9A87FF0E980F9ACA
:100E40000F98880F87FD0E9A87FF0E980F9A0F98BC
:100E5000880F87FD0E9A87FF0E980F9A0F98880FBC
:100E600087FD0E9A87FF0E980F9A0F98880F862F8E
:100E700087FD0E9A87FF0E980F9A0F98880F87FDAF
:100E80000E9A87FF0E980F9A0F98880F87FD0E9A7B
:100E900087FF0E980F9A0F98880F87FD0E9A87FF8D
:100EA0000E980F9A0F98880F87FD0E9A87FF0E985D
:100EB0000F9A0F98880F87FD0E9A87FF0E980F9A4A
:100EC0000F98880F87FD0E9A87FF0E980F9A0F983C
:100ED000880F87FD0E9A87FF0E980F9A0F98880F3C
:100EE000842F87FD0E9A87FF0E980F9A0F98880F10
:100EF00087FD0E9A87FF0E980F9A0F98880F87FD2F
:100F00000E9A87FF0E980F9A0F98880F87FD0E9AFA
:100F100087FF0E980F9A0F98880F87FD0E9A87FF0C
:100F20000E980F9A0F98880F87FD0E9A87FF0E98DC
:100F30000F9A0F98880F87FD0E9A87FF0E980F9AC9
:100F40000F98880F87FD0E9A87FF0E980F9A0F98BB
:100F5000880F06982B9A089580642B98069A87FD2F
:100F60000E9A87FF0E980F9A0F98880F87FD0E9A9A
:100F700087FF0E980F9A0F98880F87FD0E9A87FFAC
:100F80000E980F9A0F98880F87FD0E9A87FF0E987C
:100F90000F9A0F98880F87FD0E9A87FF0E980F9A69
:100FA0000F98880F87FD0E9A87FF0E980F9A0F985B
:100FB000880F87FD0E9A87FF0E980F9A0F98880F5B
:100FC00087FD0E9A87FF0E980F9A0F98880F069844
:100FD0000F9A880F169981600F980F9A880F1699AB
:100FE00081600F980F9A880F169981600F980F9A59
:100FF000880F169981600F980F9A880F1699816053
:101000000F980F9A880F169981600F980F9A880F82
:10101000169981600F980F9A880F169981600F9822
:101020002B9A08952B98069A87FD0E9A87FF0E98A3
:101030000F9A0F98880F87FD0E9A87FF0E980F9AC8
:101040000F98880F87FD0E9A87FF0E980F9A0F98BA
:10105000880F87FD0E9A87FF0E980F9A0F98880FBA
:1010600087FD0E9A87FF0E980F9A0F98880F87FDBD
:101070000E9A87FF0E980F9A0F98880F87FD0E9A89
:1010800087FF0E980F9A0F98880F87FD0E9A87FF9B
:101090000E980F9A0F98880F862FBA01422F8064FE
:1010A0002B98069A87FD0E9A87FF0E980F9A0F9835
:1010B000880F87FD0E9A87FF0E980F9A0F98880F5A
:1010C00087FD0E9A87FF0E980F9A0F98880F87FD5D
:1010D0000E9A87FF0E980F9A0F98880F87FD0E9A29
:1010E00087FF0E980F9A0F98880F87FD0E9A87FF3B
:1010F0000E980F9A0F98880F87FD0E9A87FF0E980B
:101100000F9A0F98880F87FD0E9A87FF0E980F9AF7
:101110000F98880F0698DB010F9A880F1699816047
:101120000F980F9A880F169981600F980F9A880F61
:10113000169981600F980F9A880F169981600F9801
:101140000F9A880F169981600F980F9A880F169939
:1011500081600F980F9A880F169981600F980F9AE7
:10116000880F169981600F988D934A95A9F62B9A4E
:101170000895CDB7DEB7ED97CDBFDEBF81E098ED26
:1011800094BF80936100E7EAF1E63197F1F700C080
:1011900000008093010282E08093050480930104A3
:1011A0008DEA90E0809308089093090880EC809382
:1011B000060886E99FEA0E94C6008091400083FFEE
:1011C00004C08FEB9FEA0E94C60088E08093400035
:1011D00011E010938C0A10927138109272381092AC
:1011E00073381092743878948CEC9FEA9F938F93A5
:1011F0000E94CC0188ED90E084BF9093920A1092F7
:10120000800A88EE9FEA9F938F930E94CC0183E02F
:10121000809346048093410483EC99E00197F1F7B1
:1012200000C0000052E0F52EF092420410934504F5
:1012300096EA9A95F1F700C000914804109346048D
:10124000E6EAEA95F1F700C0109148041F921F9357
:101250001F920F9388EB9DEA9F938F930E94CC017E
:101260000695017016951170CDBFDEBF011709F408
:1012700095C38AEF9FEA9F938F930E94CC010F90B2
:101280000F9081E0809341048091820A806880936E
:10129000820A88ED20EC30E084BF2093920A85E337
:1012A0009CE08093AA0A9093AB0A8093AE0A909335
:1012B000AF0A8093A80A9093A90A8093AC0A9093EE
:1012C000AD0A83E78093800A209102119091011169
:1012D000809100111F922F931F929F931F928F93C3
:1012E00089E290EB9F938F930E94CC0182E490EB74
:1012F0009F938F930E946901CDBFDEBF03E011E190
:1013000040EFE42E4CEAF42EF80181918F011F92F8
:101310008F93FF92EF920E9469010F900F900F90B0
:101320000F900D30F1E11F0779F78CEB9FEA0E94D7
:10133000C6004AE050E063E071E18E010F5F1F4F8D
:10134000C8010E9473131B861F930F9382E590EBD5
:101350009F938F930E94CC01239A2B9A079A069809
:1013600043E060E074E081E40E94E8010F900F9098
:101370000F900F9081110C94261282E094EB9F93B2
:101380008F930E94CC0187E194EB9F938F930E94EF
:10139000CC010F900F900F900F9081E08093260466
:1013A00052E05093260444E04093260438E0309302
:1013B000060420E12093060490E2909306048093B3
:1013C000210450932104409321043093010420937D
:1013D0000104909301048093030A87E78093010A34
:1013E00088EC8093270A8093260A84E68093210A5A
:1013F0008BE08093000A0E941B018EE690EB9F9386
:101400008F930E94CC0145E350E070E060E0C8019A
:101410000E9422130F900F9089819A818A329444FE
:1014200009F0DDC28B819C81AD81BE8180937E38C5
:1014300090937F38A0938038B093813880E1FE018B
:101440003796A6E8B8E301900D928A95E1F78FE10F
:10145000FE017796A3E2B9E301900D928A95E1F738
:1014600084E990EB9F938F930E94CC010F900F9093
:101470008091243981119BC28AE89FEA9F938F93C0
:101480008FEA90EB9F938F930E94CC010F900F9067
:101490000F900F908091253981118CC28AE89FEAC4
:1014A0009F938F938CEC90EB9F938F930E94CC0132
:1014B0000F900F900F900F908091263981117DC26F
:1014C0008AE89FEA9F938F938AEE90EB9F938F9386
:1014D0000E94CC010F900F900F900F9080912739B0
:1014E00081116EC28AE89FEA9F938F9389E091EB06
:1014F0009F938F930E94CC010F900F900F900F90AD
:101500008091283981115FC28AE89FEA9F938F9367
:1015100088E291EB9F938F930E94CC010F900F90E4
:101520000F900F9080912939811150C28AE89FEA6B
:101530009F938F938EE491EB9F938F930E94CC01A6
:101540000F900F900F900F9080912A39811141C216
:101550008AE89FEA9F938F938EE691EB9F938F93F8
:101560000E94CC010F900F900F900F9080912B391B
:10157000811132C28AE89FEA9F938F9383E991EBAE
:101580009F938F930E94CC01809123391F928F9358
:1015900088EB91EB9F938F930E94CC01809140390F
:1015A0001F928F9385ED91EB9F938F930E94CC01B7
:1015B000809141391F928F9383EF91EB9F938F938B
:1015C0000E94CC01CDBFDEBF80E28093A00080915D
:1015D0005204887F809352048091520484608093E7
:1015E000520480913504887F8093350480913504BE
:1015F00084608093350483E08093020691E09093A9
:10160000000688E080930606809100068260809341
:1016100000069093080686E492EB9F938F930E94B6
:10162000CC018AE2809382380F900F90A3E0B1E161
:10163000EDEFEA0FE370F0E0E258F74C84819D9102
:1016400089278483AD3031E1B30791F787E592EBC9
:101650000E94C60064E082E898E30E9481010E9433
:10166000720280917E3890917F38892B90918038DA
:10167000892B90918138892B09F0BAC10E941202FE
:10168000249A0E94E4038DE892EB9F938F930E942B
:10169000CC0188ED96E084BF909300010F900F90ED
:1016A000F8948090713890907238A0907338B09010
:1016B000743878946090EB388091BA38662009F4D9
:1016C000A0C581111CC244E050E066EB78E387ECD2
:1016D00098E30E946613892B31F58CE992EB9F9376
:1016E0008F930E94CC018091B6389091B738A09129
:1016F000B838B091B93880937E3890937F38A093F2
:101700008038B093813880E1E6E9F8E3A6E8B8E3F1
:1017100001900D928A95E1F71092BB3882E0809398
:10172000BA380F900F9044E050E06EE778E387EC12
:1017300098E30E946613892B09F0B7C18091C038E5
:101740009091C13801968093C0389093C138843607
:10175000910508F484C10E943C0281E08093F43832
:101760001092EB381091BB388091BC381817A0F557
:1017700080927A3890927B38A0927C38B0927D38F3
:10178000F89480917638909177382091783830911C
:101790007938109276381092773810927838109203
:1017A000793878943F932F939F938F938FE293EBA5
:1017B0009F938F930E94CC010F900F900F900F90EA
:1017C0000F900F908091BA38811106C08091F53842
:1017D00091E089278093F5381093BC38F894809075
:1017E000713890907238A0907338B09074387894B3
:1017F0008091103890911138A0911238B09113381F
:10180000A5019401281B390B4A0B5B0BDA01C901B6
:1018100084369105A105B10508F4D5C580910B0664
:1018200080FFC9C52091100630911106A4ECB9E0E3
:101830000E94D0122FEF33E040E050E00E9481126E
:10184000AEE6B0E00E94E6126EAB7FAB88AF99AF18
:101850002AE030E040E050E00E94811269017A0104
:101860003CEB831632E09306A104B104B0F5FF927D
:10187000EF92DF92CF9285E493EB9F938F930E9438
:10188000CC010F900F900F900F900F900F90D701F9
:10189000C60181579741A109B109833C9940A1052F
:1018A000B10508F05CC582E090E080930B3890931E
:1018B0000C3880910B3890910C38181619060CF0E2
:1018C0006FC59F938F9383E593EB9F938F930E94B4
:1018D000CC010F900F900F900F90C0920D38D092C6
:1018E0000E3820910B3830910C38121613060CF07C
:1018F00062C540EF5AE0249FC001259F900D349FA0
:10190000900D1124092E000CAA0BBB0BC816D9068A
:10191000EA06FB0608F04DC580910F388F5F809373
:101920000F3887E993EB9F938F930E94CC010F9020
:101930000F9080910F388D3008F43DC5F89481EBFD
:1019400093EB9F938F930E94CC018CEB9FEA0E94B4
:10195000C600F8941092450A109212041092400AA0
:1019600080EA0E94DC0687EA91E60197F1F700C061
:10197000000080E80E94DC0688ED90E084BF909330
:10198000000187EC93EB9F938F930E94CC010E9400
:10199000D2000F900F900F900F90FFCF8DE190EB42
:1019A0009F938F930E94CC01F092410468CC85E80C
:1019B0009FEA64CD80E99FEA73CD80E99FEA82CDFA
:1019C00080E99FEA91CD80E99FEAA0CD80E99FEA76
:1019D000AFCD80E99FEABECD80E99FEACDCD81E120
:1019E00092EB9F938F930E94CC010F900F90ECCDC0
:1019F0008EE592EB9F938F930E94CC0164E08EE77B
:101A000098E30E94810182E08093BA3880E1E6E8A1
:101A1000F8E3A6E9B8E301900D928A95E1F7809189
:101A20007E3890917F38A0918038B0918138809332
:101A3000B6389093B738A093B838B093B9388EE7DA
:101A400092EB9F938F930E94CC0160E186E898E32C
:101A50000E9481010F900F900F900F9011CE8091F6
:101A6000CF38823009F079CE44E050E062E878E384
:101A70008BEC98E30E946613892B09F06ECE8EECF6
:101A800092EB9F938F930E94CC01D501C401C29623
:101A9000A11DB11D8093C2389093C338A093C43860
:101AA000B093C5380F900F9058CE8091C6388B5B9D
:101AB000823008F052CE4DED52EB5F934F930E946F
:101AC000CC011092C0381092C1388091C7389091E3
:101AD000C838A091C938B091CA3880937E389093A5
:101AE0007F38A0938038B093813880E1E1EDF8E34E
:101AF000A6EAB8E301900D928A95E1F7D3CF8091E1
:101B00001E398F5F80931E398091C638883549F021
:101B10008092EC389092ED38A092EE38B092EF3887
:101B20001CCE2091CF383091D0388091D13890910F
:101B3000D2384091D3385091D4384D835E83609130
:101B4000D5387091D6386F8378870091D738109147
:101B5000D8380EAB1FABE091D938F091DA38EB876B
:101B6000FC87E0912839EE2321F06D837E834F833B
:101B7000588770901F382D803E80772009F4DCC193
:101B800020911738309118382817390720F480939E
:101B90001738909318382091193830911A388217D5
:101BA000930720F48093193890931A3819E7211A73
:101BB00015E0310A27EC2216310408F0CDC08091DF
:101BC0001738909118382091193830911A38821BA3
:101BD000930B8536910508F4BFC08DEE92EB0E9401
:101BE000C60010921F38272D3091143881E0809361
:101BF0002038F89440917138509172386091733860
:101C000070917438789440931B3850931C386093CB
:101C10001D3870931E38772009F4ECC22093F538F4
:101C20008091F638811106C0109220391092213926
:101C30001092223981E08093F63880911D3981110C
:101C4000DEC29AEA9093F73840917E3850917F38FF
:101C500060918038709181384093F8385093F9380A
:101C60006093FA387093FB384091823850918338F2
:101C700060918438709185384093FC385093FD38DA
:101C80006093FE387093FF38E0910D38F0910E3874
:101C9000E536F10508F4B1C21092003940910B38D5
:101CA00050910C384130510509F482E0809301399C
:101CB000CF016AE070E00E9459126093023970937C
:101CC000033966246394E83EF34008F4612CEDE0A8
:101CD000AE2FB0E0A950B74C8EEF8C93A1E0AE0FC1
:101CE000B0E0A950B74C1C9280912239A2E0AE0F0F
:101CF000B0E0A950B74C8C9384E08E0FA3E0AE0FF8
:101D0000B0E0A950B74C1C927720D1F0A82FB0E0DA
:101D1000A950B74C82E08C93A5E0AE0FB0E0A9507B
:101D2000B74C81E08C93A6E0AE0FB0E0A950B74C61
:101D30003C9388E08E0FE95FF0E0E950F74C1082A9
:101D4000E82FF0E0E950F74C8FEF808360921C3968
:101D500087E180931D39DCCE91E00EA91FA90134E3
:101D6000164008F490E0F894C0907138D090723822
:101D7000E0907338F090743878940EA91FA901345C
:101D8000164088F08091163881110DC08091153869
:101D90008F5F80931538C0920538D0920638E09254
:101DA0000738F092083890931638809115388823B8
:101DB00009F444C0409105385091063860910738C5
:101DC0007091083897018601041B150B260B370B01
:101DD000B901A801493C51056105710578F11F92CF
:101DE0008F9328E033EB3F932F930E94CC010F9009
:101DF0000F900F900F90E0911538E250EA30E0F428
:101E0000F0E0E55DF94E0C94C2128091243991E026
:101E10008927809324398C5E809314380E9428018E
:101E20008091153880930438C0920038D0920138E0
:101E3000E0920238F092033810921538109104386D
:101E4000112309F472C08091003890910138A0915B
:101E50000238B0910338A7019601281B390B4A0BB1
:101E60005B0B2EAB3FAB48AF59AFCA01B90129E1BB
:101E700030E040E050E00E948112812F90E0880F16
:101E8000991F2817190619F014F01092043820959C
:101E90002170AACE8091253991E089278093253938
:101EA000825EBACF8091263991E0892780932639C6
:101EB000885DB2CF0E941B0182E3AECF80912739AB
:101EC00091E0892780932739845CA6CF42E050E0D7
:101ED00070E060E08AE69CEA0E942613F89488EDA0
:101EE00091E084BF90934100FCCF8091283991E02C
:101EF000892780932839805B8FCF8091293991E0A1
:101F0000892780932939865A87CF80912A3991E091
:101F1000892780932A398C597FCF80912B3991E082
:101F2000892780932B39825977CF3C2D3E7121E050
:101F300009F05ACE20E058CE4CED241A45E0340A80
:101F4000AC014C5D55406AE0649FC001659F900DF7
:101F500011242C5D3540629F8001639F100D112478
:101F60009C012F533E4FF0E0E0E02338334078F0FF
:101F70006DE270E00E946D12FB016C397F4F14F42A
:101F8000ECE9FFEFE536F10514F0E4E6F0E0C80116
:101F90008F539E4F8338934008F488C0C8016DE288
:101FA00070E00E946D128B016C397F4F14F40CE9C4
:101FB0001FEF0536110514F004E610E08091273973
:101FC0002F018823A9F19F01F7FF04C0222733279F
:101FD0002E1B3F0BDF010E94C81224E630E040E0D8
:101FE00050E00E94A31269012901980117FF04C063
:101FF00022273327201B310BD8010E94C8126AAF59
:102000007BAF8CAF9DAF24E630E040E050E00E9413
:10201000A312C90160912B39611104C037FD0196EB
:10202000959587958C010C0D1D1DF601E81BF90B8C
:102030000C394FEF140714F40CE91FEF05361105A6
:1020400014F004E610E0EC395FEFF50714F4ECE966
:10205000FFEFE536F10514F0E4E6F0E07801EE0C70
:10206000FF1C8F01000F111F84E1829D9001839D51
:10207000300D1124C9016DE270E00E946D12562FDF
:10208000472F80912339813009F092C02B378CE0A3
:1020900038070CF0A0C02638334F5CF4CB018833EE
:1020A000EFEF9E078CF488E39FEF0EC010E000E096
:1020B00085CFC20157FE03C091958195910945973F
:1020C0000CF486C088ED9FEF2EA93FA9213436403D
:1020D00048F022273327201B310B002711270E1928
:1020E0001F09790120912439222319F0F194E194F8
:1020F000F10820912539222319F011950195110934
:1021000020912639222319F0919581959109BC01DE
:1021100080E00E947500E114F10409F05FC0809135
:102120002939882309F45AC088EC80932C0A8093BB
:102130002A0A0115110509F056C080912939882312
:1021400009F451C088EC80932D0A80932B0A80916A
:10215000093890910A38009709F04AC080E190E070
:102160008093093890930A38EB84FC84609140395D
:102170008F8198850E9452008C0160914139C7017E
:102180000E94520025E33CE0201B310B2093A80A5B
:102190003093A90AE5E3FCE0E81BF90BE093AC0AF5
:1021A000F093AD0A81E08093840A30E021E01ECDF7
:1021B0002438F3E03F0734F42D373C4F34F050E03F
:1021C00040E003C02535334234F4852F942F67CF88
:1021D00090E080E079CF88EC90E076CFB70181E0A5
:1021E0000E947500A6CFB80182E00E947500AFCFB3
:1021F0000197B6CF8093F53813CDE9E069CD8150D2
:10220000A8CD811116C08091C2389091C338A09199
:10221000C438B091C5380097A105B10509F4A2CA28
:1022200088159905AA05BB0508F09CCA0E943C02C6
:1022300099CA8091EC389091ED38A091EE38B09128
:10224000EF38A5019401281B390B4A0B5B0BDA010F
:10225000C9014A97A105B10508F484CA70E060E09D
:1022600080E00E94750070E060E081E00E947500EF
:1022700070E060E082E00E94750045E35CE040931E
:10228000A80A5093A90A4093AC0A5093AD0A81E082
:102290008093840A109220381092F5381092F63804
:1022A0008091F438882391F18091F0389091F13841
:1022B000A091F238B091F338892B8A2B8B2B09F43B
:1022C0003DC08091F0389091F138A091F238B091F2
:1022D000F33895018401081B190B2A0B3B0BD9011C
:1022E000C80185369105A105B10508F43BCAF894EB
:1022F0000E9472020E94E40378948092F0389092D7
:10230000F138A092F238B092F3382CCA51E7851612
:1023100057E19506A104B10408F424CA80E293EBC6
:102320009F938F930E94CC010E9412020F900F90F6
:102330008091F438882309F415CAB6CF8091EC381F
:102340009091ED38A091EE38B091EF388093F0384D
:102350009093F138A093F238B093F338B2CFD7010D
:10236000C601895B9B40A109B109813E9440A1054A
:10237000B10518F481E090E098CAD701C6018952EE
:102380009342A109B10987329342A105B10518F41E
:1023900083E090E08ACA10920B3810920C3889CAF8
:1023A0008DE693EB9F938F930E94CC010F900F903B
:1023B00094CA10920F388092103890921138A092DF
:1023C0001238B092133880912038811136C0809134
:1023D0001F38811132C0F894809171389091723811
:1023E000A0917338B0917438789440911B38509113
:1023F0001C3860911D3870911E38841B950BA60BFC
:10240000B70B853F9140A105B105B8F086EE93EB7F
:102410000E94C60081E080931F3880ED97E0809392
:10242000193890931A381092173810921838109261
:102430001638109215381092143880917538882308
:1024400009F42EC9A895109275382AC944E060E0B5
:1024500074E081E40E94E801882311F40C94BD0922
:1024600045E060E074E081E40E94E801882311F413
:102470000C94BD0940E060E274E082E40E94E8014F
:10248000882311F40C94BD0941E060E274E082E419
:102490000E94E801882311F40C94BD0942E060E237
:1024A00074E082E40E94E80181110C94CD090C943F
:1024B000BD09AA1BBB1B51E107C0AA1FBB1FA61762
:1024C000B70710F0A61BB70B881F991F5A95A9F7DD
:1024D00080959095BC01CD01089597FB072E16F4C9
:1024E000009407D077FD09D00E94591207FC05D04F
:1024F0003EF4909581959F4F0895709561957F4F1B
:102500000895A1E21A2EAA1BBB1BFD010DC0AA1F34
:10251000BB1FEE1FFF1FA217B307E407F50720F04C
:10252000A21BB30BE40BF50B661F771F881F991FC7
:102530001A9469F760957095809590959B01AC0110
:10254000BD01CF010895052E97FB1EF400940E9453
:10255000BA1257FD07D00E94811207FC03D04EF437
:102560000C94BA1250954095309521953F4F4F4F9E
:102570005F4F089590958095709561957F4F8F4F2F
:102580009F4F0895EE0FFF1F0590F491E02D0994E1
:102590000E94D012332312F48A1B9B0B0C94E1127D
:1025A000A29FB001B39FC001A39F700D811D112494
:1025B000911DB29F700D811D1124911D08950E94DF
:1025C000D012B7FF0895821B930B08950E94D0127A
:1025D000A59F900DB49F900DA49F800D911D112477
:1025E00008952F923F924F925F926F927F928F92B7
:1025F0009F92AF92BF92CF92DF92EF92FF920F9392
:102600001F93CF93DF93CDB7DEB7CA1BDB0BCDBFD4
:10261000DEBF09942A88398848885F846E847D8467
:102620008C849B84AA84B984C884DF80EE80FD807A
:102630000C811B81AA81B981CE0FD11DCDBFDEBF18
:10264000ED01089560507C4E0C945D13DC01A40FE5
:10265000B51F4150504048F0CB01840F951F2E917B
:102660000E94371341505040D0F70895262F0E9402
:1026700059130080021619F00E9442130197019726
:102680000895262FAF93BF93E0E0F0E1328131FD52
:10269000FDCFDC01A050BC4E2C932DE924BF23E0DC
:1026A00020830196BF91AF91089503D0808199272F
:1026B0000895FC01E050FC4E0895FB01DC0102C0CE
:1026C00001900D9241505040D8F70895FB01DC0174
:1026D00004C08D910190801921F441505040C8F7F9
:1026E000881B990B0895FB01DC014150504048F0D4
:1026F00001900D920020C9F701C01D924150504039
:10270000E0F70895AEE0B0E0E8E8F3E10C94FF12E2
:102710008C01CB01BA01A90126E02C8309831A831D
:1027200097FF02C080E090E801978D839E83CE01E1
:1027300001960E94AD134D815E8157FD0AC02F8125
:102740003885421753070CF49A01020F131FF80142
:1027500010822E96E4E00C941813AFE0B0E0E3EBA7
:10276000F3E10C94F1127C013B018A01DC01169625
:102770001D921C92179713968C9181FFC3C19AE00A
:10278000292EFE0131964F01D70113969C91F3013A
:1027900093FD859193FF81913F01882309F448C1FE
:1027A000853239F493FD859193FF81913F01853204
:1027B00029F4B70190E00E949B15E6CFB12C412C83
:1027C000512CBFE1B51538F08B3209F188F4803215
:1027D00001F1833221F157FC3AC020ED280F2A3055
:1027E00040F556FE1FC0B29C200D1124B22E06C02B
:1027F0008D3291F0803379F7689450F8F30193FDAE
:10280000859193FF81913F018111DBCF20C06894B6
:1028100051F8689452F8F2CF689453F8EFCF689467
:1028200054F8ECCF429C200D1124422E689455F8A8
:10283000E5CF8E3229F456FCFBC0689456F8DECF03
:102840008C3619F4689457F8D9CF8836B9F2982F96
:102850009F7D95549330C0F08336A1F18337C1F149
:10286000833509F05BC0D801CD90DD908D016B2DD3
:1028700070E056FC02C06FEF7FEFC6010E94851525
:102880005C01689457F80AC00C5F1F4FEFE3E983BF
:10289000AA24A394B12C6401E89457F853FC04C013
:1028A0004A141B0409F018F5342CA114B10431F5B5
:1028B000332009F469CFB70180E290E00E949B15B4
:1028C0003A94F6CFD8018C9189830E5F1F4FE0CFE9
:1028D000F801C190D1908F016B2D70E056FC02C0C1
:1028E0006FEF7FEFC6010E9490155C01D5CFB70155
:1028F00080E290E00E949B154A94D2CFF60157FCEB
:10290000859157FE81916F01B70190E00E949B1560
:1029100031103A94B1E0AB1AB108C7CF843619F040
:10292000893609F074C0F80157FE6AC0619171914F
:10293000819191918F01E52DEF76DE2E97FF09C0F1
:1029400090958095709561957F4F8F4F9F4F6894BC
:10295000D7F82AE030E0A4010E94CB15C82EC81891
:10296000AC2C5D2CD6FE0CC0E89450F8CB1440F48F
:10297000D4FE05C0D2FC03C05D2D5E7E552EAB2C6F
:1029800054FE98C0FE01EC0DF11D8081803309F0EA
:102990008AC0652D697E562E752D7870372E53FCB2
:1029A00098C050FE92C0BC2CA41418F44C0CB42C4B
:1029B000BA1854FE94C0B70180E390E00E949B15C2
:1029C00052FE09C088E790E051FE02C088E590E021
:1029D000B7010E949B15CB1408F48DC0CA94D12C6A
:1029E0008FEFC81AD80AC80CD91CD6018E916D0178
:1029F000B70190E00E949B158C149D04B1F758CF4D
:102A000061917191072E000C880B990B93CFD52CF7
:102A1000E894D4F82AE030E0853739F1F52DF97FD4
:102A2000DF2E8037A9F058F48835A9F08F36D9F019
:102A3000F701868197812F96E2E10C940A1388377B
:102A4000B9F7D4FE02C06894D2F820E130E00DC09E
:102A50006894D4F8F6CF54FE03C02F2F2660D22EF0
:102A600020E132E002C028E030E0F801D7FE15C0D6
:102A700041915191619171914C875D876E877F87FC
:102A80008F01A4016C857D858E859F850E94CB1565
:102A9000C82EC818E894D7F863CF81919191AC0102
:102AA00070E060E0E9CF52FC02C0A39475CFA3941C
:102AB000A39472CF852D867809F46ECFF6CFB70137
:102AC00080E290E00E949B15A394A414C0F3312CE3
:102AD00070CF342C3A18A41408F46BCFF8CF852D9E
:102AE000867809F478CF8BE251FE80E257FC8DE2C4
:102AF000B70190E06ECFB70180E390E00E949B1594
:102B0000BA9469CF8FEF9FEF96CFFC01059061508B
:102B100070400110D8F7809590958E0F9F1F0895F3
:102B2000FC016150704001900110D8F7809590959C
:102B30008E0F9F1F08950F931F93CF93DF93182F2E
:102B4000092FEB018B8181FD09C01FEF0FEF812F52
:102B5000902FDF91CF911F910F91089582FF14C0A4
:102B60002E813F818C819D81281739073CF4E881B3
:102B7000F981CF0101968883998310838E819F818B
:102B800001968E839F83E3CFE885F985812F099590
:102B9000892BA1F3DACFFA01AA27283051F120318D
:102BA00081F1E8946F936E7F6E5F7F4F8F4F9F4FE1
:102BB000AF4FB1E03ED0B4E03CD0670F781F891F23
:102BC0009A1FA11D680F791F8A1F911DA11D6A0FF1
:102BD000711D811D911DA11D20D009F468943F91A4
:102BE0002AE0269F11243019305D3193DEF6CF01A3
:102BF0000895462F4770405D4193B3E00FD0C9F769
:102C0000F6CF462F4F70405D4A3318F0495D31FDD5
:102C10004052419302D0A9F7EACFB4E0A695979528
:102C2000879577956795BA95C9F7009761057105FE
:102C300008959B01AC010A2E069457954795379548
:102C40002795BA95C9F7620F731F841F951FA01DA2
:102C50000895F894FFCF050F4A0F520F5A0F5E0FD9
:0A2C6000660F750F7D0F850F8D0FB5
:102C6A000000FF42002500FFFF00000000000005F1
:102C7A0000509E4B0002162B124F6280FFFF2A3231
:102C8A00C31F1EFF00FF00003B00174780030145DA
:102C9A001800010F5475C52A290A280A2C0A2A0A7B
:102CAA002D0A2B0A0D0A4641494C204641494C201F
:102CBA004641494C210D0A0A0A0054494D454F55CF
:102CCA005420696E697469616C6973696E672072F0
:102CDA006164696F2E204661756C7479206372791C
:102CEA007374616C3F002530327820006D6F746F09
:102CFA00722070696E5F636865636B204641494C58
:102D0A003A20706F727420256320256420737475CD
:102D1A00636B206869676800696E697469616C69C8
:102D2A0073696E672062696E64206D6F6465004224
:102D3A00696E64206D6F646520686F7070696E6774
:102D4A00207061747465726E3A200074785F6964E9
:102D5A005F73617665643A200042696E6420636F2E
:102D6A006D706C657465642E00686F703A2000524D
:102D7A006573657474696E6720746865206137319C
:102D8A0030350057726974696E6720342D62797420
:102D9A006520494400436F6E6669677572696E679C
:102DAA002047494F312070696E2E2E2E0020696E01
:102DBA00303D2530327820696E313D253032780039
:102DCA0047494F312070696E20646F6573206E6FBA
:102DDA00742061707065617220746F20776F726BF6
:102DEA000047494F312070696E206661696C005254
:102DFA00656769737465722064756D7020616674A5
:102E0A0065722070726F6772616D6D696E670049D5
:102E1A00462066696C7465722062616E6B2063611C
:102E2A006C6962726174696F6E0056434F20437514
:102E3A007272656E742043616C6962726174696F43
:102E4A006E0056434F2062616E6B2063616C69624B
:102E5A00726174696F6E0056434F2042616E6B2037
:102E6A0043616C696272617465206368616E6E6544
:102E7A006C2030002121212056434F2043616C6988
:102E8A0062726174696F6E206661696C0056434FA5
:102E9A002042616E6B2043616C69627261746520C5
:102EAA006368616E6E656C20307861300076636F9E
:102EBA002063616C2061303D2530327800526573A1
:102ECA0065742056434F2062616E642063616C69A9
:102EDA0062726174696F6E005374726F62652073F7
:102EEA0074616E6462790046696E616C207265670E
:102EFA0069737465722064756D700069645F7265C8
:102F0A0061646261636B5B25645D3D2530327800E4
:102F1A004552524F523A2057726F6E6720494420E9
:102F2A00726561646261636B006368616E6E656C91
:102F3A002076616C756520253032782073686F754C
:102F4A006C64206265206130004661696C20746F90
:102F5A002072656164206368616E6E656C206261CF
:102F6A00636B00496E697469616C6973696E672085
:102F7A00696E746572727570747300747275650027
:102F8A0066616C736500747275653A000D0A4D616D
:102F9A006C656E6B692D4E616E6F20323032334232
:102FAA0020485620284869676820566F6C74616704
:102FBA0065290D0A0077646F672066697265640D7A
:102FCA000A00496E697469616C6973696E67206584
:102FDA007874726120776561706F6E73210063681F
:102FEA0065636B696E6720776561706F6E20330069
:102FFA00576561706F6E33206170706561727320FE
:10300A0073686F7274656420746F20776561706F7E
:10301A006E3200576561706F6E33206F6B2E0064DD
:10302A0065766963652069643D25303278202530EC
:10303A00327820253032780073657269616C206EAF
:10304A00756D6265723A200073657269616C206EF3
:10305A00756D6265722028617363696929206973D5
:10306A003A257300417474656D7074696E672074D3
:10307A006F206C6F616420636F6E66696720667289
:10308A006F6D20656570726F6D004C6F6164656469
:10309A0020636F6E6669672066726F6D2065657062
:1030AA00726F6D3A006D6978696E675F73746174E7
:1030BA00652E696E766572745F6C6566743A202552
:1030CA0073006D6978696E675F73746174652E69E0
:1030DA006E766572745F72696768743A2025730048
:1030EA006D6978696E675F73746174652E696E764F
:1030FA006572745F776561706F6E3A202573006D33
:10310A006978696E675F73746174652E656E616252
:10311A006C655F6D6978696E673A202573006D6921
:10312A0078696E675F73746174652E737761705F17
:10313A00776561706F6E5F6368616E6E656C733A16
:10314A00202573006D6978696E675F7374617465B1
:10315A002E656E61626C655F6272616B696E673A59
:10316A00202573006D6978696E675F737461746591
:10317A002E656E61626C655F736572766F5F646FF0
:10318A0075626C653A202573006D6978696E675FB0
:10319A0073746174652E656E61626C655F6D6178CA
:1031AA005F7374656572696E673A202573006D698D
:1031BA0078696E675F73746174652E776561706F85
:1031CA006E5F6D6F64653A202564006D6978696E7B
:1031DA00675F73746174652E776561706F6E325FB5
:1031EA006D6F64653A202564006D6978696E675F62
:1031FA0073746174652E776561706F6E335F6D6F7E
:10320A0064653A20256400446964206E6F74206600
:10321A00696E642076616C696420636F6E666967A3
:10322A0020696E20656570726F6D2E205573696E08
:10323A00672064656661756C74732E004265676900
:10324A006E20726164696F5F696E69740072785F7B
:10325A0069643D00696E697469616C6973696E6756
:10326A002066726F6D2073617665642074782069B8
:10327A00643A2000486F70206368616E6E656C73F3
:10328A003A2000456E6420726164696F5F696E69F5
:10329A0074004F6C64207472616E736D6974746526
:1032AA007220726561707065617265642C2077693D
:1032BA006C6C20757365206F6C6420736574746917
:1032CA006E67730042696E64322064657465637464
:1032DA006564004E6577207478206465746563744C
:1032EA006564004C656176696E6720636F6E666916
:1032FA006775726174696F6E206D6F646500636FC4
:10330A006E6669675F7377697463685F636F756E0A
:10331A00743A202564004175746F2D62696E6420C9
:10332A006D6F64650072783A2025303575206D69B5
:10333A00737365643A202530357500766261743D91
:10334A002530346C64206D76004465746563746559
:10335A006420256420626174746572792063656CE7
:10336A006C73004261747465727920766F6C746153
:10337A006765206F7574206F662072616E67652CB1
:10338A002062656E636820746573743F00576172CA
:10339A006E696E673A2056455259204C4F57204263
:1033AA004154544552590023232320536875747499
:1033BA00696E6720646F776E20232323005261644D
:1033CA00696F206973207368757420646F776E2E35
:1033DA0020476F6F646E696768742E00456E746566
:1033EA0072696E6720636F6E666967757261746968
:1033FA006F6E206D6F6465004D6F746F7220706917
:10340A006E20737475636B206869676800436F6E1A
:0F341A0074696E75696E6720616E7977617900EC
:00000001FF
